{
  "abi": [
    {
      "inputs": [],
      "stateMutability": "nonpayable",
      "type": "constructor"
    },
    {
      "inputs": [
        {
          "internalType": "address[]",
          "name": "assets",
          "type": "address[]"
        },
        {
          "internalType": "address[]",
          "name": "users",
          "type": "address[]"
        }
      ],
      "name": "bulkClaimRewardsOnBehalf",
      "outputs": [],
      "stateMutability": "nonpayable",
      "type": "function"
    },
    {
      "inputs": [],
      "name": "incentivesContract",
      "outputs": [
        {
          "internalType": "address",
          "name": "",
          "type": "address"
        }
      ],
      "stateMutability": "view",
      "type": "function"
    }
  ],
  "bytecode": {
    "object": "0x6080604052600080546001600160a01b03191673fa255f5104f129b78f477e9a6d050a02f31a5d8617905560001960015534801561003c57600080fd5b5061048f8061004c6000396000f3fe608060405234801561001057600080fd5b50600436106100365760003560e01c80635b3ff9201461003b578063adb1859d14610050575b600080fd5b61004e610049366004610261565b610099565b005b6000546100709073ffffffffffffffffffffffffffffffffffffffff1681565b60405173ffffffffffffffffffffffffffffffffffffffff909116815260200160405180910390f35b60005b8181101561020e576000805460015473ffffffffffffffffffffffffffffffffffffffff90911690879087908787878181106100da576100da6102cd565b90506020020160208101906100ef9190610325565b888888818110610101576101016102cd565b90506020020160208101906101169190610325565b60405160240161012a959493929190610347565b604080517fffffffffffffffffffffffffffffffffffffffffffffffffffffffffffffffe08184030181529181526020820180517bffffffffffffffffffffffffffffffffffffffffffffffffffffffff167f5785cb8400000000000000000000000000000000000000000000000000000000179052516101ab91906103cb565b6000604051808303816000865af19150503d80600081146101e8576040519150601f19603f3d011682016040523d82523d6000602084013e6101ed565b606091505b50509050806101fb57600080fd5b5080610206816103fa565b91505061009c565b5050505050565b60008083601f84011261022757600080fd5b50813567ffffffffffffffff81111561023f57600080fd5b6020830191508360208260051b850101111561025a57600080fd5b9250929050565b6000806000806040858703121561027757600080fd5b843567ffffffffffffffff8082111561028f57600080fd5b61029b88838901610215565b909650945060208701359150808211156102b457600080fd5b506102c187828801610215565b95989497509550505050565b7f4e487b7100000000000000000000000000000000000000000000000000000000600052603260045260246000fd5b803573ffffffffffffffffffffffffffffffffffffffff8116811461032057600080fd5b919050565b60006020828403121561033757600080fd5b610340826102fc565b9392505050565b6080808252810185905260008660a08301825b888110156103955773ffffffffffffffffffffffffffffffffffffffff610380846102fc565b1682526020928301929091019060010161035a565b506020840196909652505073ffffffffffffffffffffffffffffffffffffffff9283166040820152911660609091015292915050565b6000825160005b818110156103ec57602081860181015185830152016103d2565b506000920191825250919050565b60007fffffffffffffffffffffffffffffffffffffffffffffffffffffffffffffffff8203610452577f4e487b7100000000000000000000000000000000000000000000000000000000600052601160045260246000fd5b506001019056fea264697066735822122016eb01b9257a53d17555145d654d0200bb63e20b7b7a8df34619730795b0dd6264736f6c63430008130033",
    "linkReferences": {}
  },
  "methodIdentifiers": {
    "bulkClaimRewardsOnBehalf(address[],address[])": "5b3ff920",
    "incentivesContract()": "adb1859d"
  },
  "id": 0
}